{"abi":[{"type":"constructor","inputs":[{"name":"_consentManager","type":"address","internalType":"address"},{"name":"_doctorRegistry","type":"address","internalType":"address"},{"name":"initialOwner","type":"address","internalType":"address"}],"stateMutability":"nonpayable"},{"type":"function","name":"addRecord","inputs":[{"name":"_patient","type":"address","internalType":"address"},{"name":"_recordType","type":"string","internalType":"string"},{"name":"_ipfsHash","type":"string","internalType":"string"}],"outputs":[],"stateMutability":"nonpayable"},{"type":"function","name":"consentManager","inputs":[],"outputs":[{"name":"","type":"address","internalType":"contract IConsentManager"}],"stateMutability":"view"},{"type":"function","name":"doctorRegistry","inputs":[],"outputs":[{"name":"","type":"address","internalType":"contract IDoctorRegistry"}],"stateMutability":"view"},{"type":"function","name":"getRecords","inputs":[{"name":"_patient","type":"address","internalType":"address"}],"outputs":[{"name":"","type":"tuple[]","internalType":"struct MedicalRecords.Record[]","components":[{"name":"recordId","type":"uint256","internalType":"uint256"},{"name":"doctor","type":"address","internalType":"address"},{"name":"patient","type":"address","internalType":"address"},{"name":"recordType","type":"string","internalType":"string"},{"name":"ipfsHash","type":"string","internalType":"string"},{"name":"timestamp","type":"uint256","internalType":"uint256"},{"name":"version","type":"uint256","internalType":"uint256"}]}],"stateMutability":"view"},{"type":"function","name":"owner","inputs":[],"outputs":[{"name":"","type":"address","internalType":"address"}],"stateMutability":"view"},{"type":"function","name":"recordCounter","inputs":[],"outputs":[{"name":"","type":"uint256","internalType":"uint256"}],"stateMutability":"view"},{"type":"function","name":"renounceOwnership","inputs":[],"outputs":[],"stateMutability":"nonpayable"},{"type":"function","name":"transferOwnership","inputs":[{"name":"newOwner","type":"address","internalType":"address"}],"outputs":[],"stateMutability":"nonpayable"},{"type":"function","name":"versionByType","inputs":[{"name":"","type":"address","internalType":"address"},{"name":"","type":"string","internalType":"string"}],"outputs":[{"name":"","type":"uint256","internalType":"uint256"}],"stateMutability":"view"},{"type":"event","name":"OwnershipTransferred","inputs":[{"name":"previousOwner","type":"address","indexed":true,"internalType":"address"},{"name":"newOwner","type":"address","indexed":true,"internalType":"address"}],"anonymous":false},{"type":"event","name":"RecordAdded","inputs":[{"name":"recordId","type":"uint256","indexed":true,"internalType":"uint256"},{"name":"patient","type":"address","indexed":true,"internalType":"address"},{"name":"doctor","type":"address","indexed":true,"internalType":"address"},{"name":"recordType","type":"string","indexed":false,"internalType":"string"},{"name":"ipfsHash","type":"string","indexed":false,"internalType":"string"}],"anonymous":false},{"type":"error","name":"OwnableInvalidOwner","inputs":[{"name":"owner","type":"address","internalType":"address"}]},{"type":"error","name":"OwnableUnauthorizedAccount","inputs":[{"name":"account","type":"address","internalType":"address"}]}],"bytecode":{"object":"0x60803461010757601f610d7b38819003918201601f19168301916001600160401b0383118484101761010b57808492606094604052833981010312610107576100478161011f565b906100546020820161011f565b906001600160a01b039061006a9060400161011f565b169182156100f4575f80546001600160a01b031981168517825560405194916001600160a01b03909116907f8be0079c531659141344cd1fd0a4f28419497f9722a3daafe3b4186f6b6457e09080a3600480546001600160a01b039283166001600160a01b03199182161790915560058054939092169216919091179055610c4790816101348239f35b631e4fbdf760e01b5f525f60045260245ffd5b5f80fd5b634e487b7160e01b5f52604160045260245ffd5b51906001600160a01b03821682036101075756fe60806040526004361015610011575f80fd5b5f3560e01c8063715018a6146109785780637599be5d1461095b57806382cfb2ff146109335780638da5cb5b1461090c578063a0076e84146106de578063d38c534e1461066c578063d47b41d51461012d578063e75bb266146101055763f2fde38b1461007c575f80fd5b34610101576020366003190112610101576100956109cf565b61009d610beb565b6001600160a01b031680156100ee575f80546001600160a01b03198116831782556001600160a01b0316907f8be0079c531659141344cd1fd0a4f28419497f9722a3daafe3b4186f6b6457e09080a3005b631e4fbdf760e01b5f525f60045260245ffd5b5f80fd5b34610101575f366003190112610101576004546040516001600160a01b039091168152602090f35b34610101576060366003190112610101576101466109cf565b60243567ffffffffffffffff811161010157610166903690600401610a47565b60443567ffffffffffffffff811161010157610186903690600401610a47565b600554604051630b13acdf60e01b815233600482015291939190602090829060249082906001600160a01b03165afa908115610607575f9161064d575b50156106125760048054604051631709ef0760e01b81526001600160a01b03848116938201939093523360248201529160209183916044918391165afa801561060757610217915f916105d8575b50610ab5565b610222600154610bc9565b60015560018060a01b031690815f52600360205260405f2060206040518092845180848701845e82019081520301902061025c8154610bc9565b809155825f52600260205260405f2090600154916040519261027d84610a09565b835260208301338152604084018681526060850190868252608086019289845260a087019442865260c08801968752805490680100000000000000008210156104e957600182018082558210156105c4575f908152602090209751600791909102909701968755516001870180546001600160a01b03199081166001600160a01b039384161790915591516002880180549093169116179055518051600386019167ffffffffffffffff82116104e95781906103398454610af1565b601f811161056b575b50602090601f8311600114610508575f926104fd575b50508160011b915f199060031b1c19161790555b518051600485019167ffffffffffffffff82116104e95761038d8354610af1565b601f8111610498575b50602090601f831160011461043057600695949392915f9183610425575b50508160011b915f199060031b1c19161790555b516005840155519101557f0245d343b711757637a3608d9f701ceab53135194074c8efbe2dab09feabb789610411600154926104206040519283926040845260408401906109e5565b828103602084015233976109e5565b0390a4005b015190508a806103b4565b90601f19831691845f52815f20925f5b81811061048057509160019391856006999897969410610468575b505050811b0190556103c8565b01515f1960f88460031b161c191690558a808061045b565b92936020600181928786015181550195019301610440565b8281111561039657835f5260205f20601f840160051c90602085106104e1575b81601f9101920160051c03905f5b8281106104d4575050610396565b5f828201556001016104c6565b5f91506104b8565b634e487b7160e01b5f52604160045260245ffd5b015190508a80610358565b5f8581528281209350601f198516905b818110610553575090846001959493921061053b575b505050811b01905561036c565b01515f1960f88460031b161c191690558a808061052e565b92936020600181928786015181550195019301610518565b8281111561034257909150835f5260205f20601f840160051c90602085106105bc575b849392601f0160051c82900391015f5b8281106105ac575050610342565b5f8183015585945060010161059e565b5f915061058e565b634e487b7160e01b5f52603260045260245ffd5b6105fa915060203d602011610600575b6105f28183610a25565b810190610a9d565b85610211565b503d6105e8565b6040513d5f823e3d90fd5b60405162461bcd60e51b8152602060048201526013602482015272111bd8dd1bdc881b9bdd081d995c9a599a5959606a1b6044820152606490fd5b610666915060203d602011610600576105f28183610a25565b846101c3565b34610101576040366003190112610101576106856109cf565b6024359067ffffffffffffffff82116101015760208080926106ab853690600401610a47565b9060018060a01b03165f526003825260405f20604051938285935191829101845e82019081520301902054604051908152f35b34610101576020366003190112610101576106f76109cf565b6001600160a01b03811690338214801561089d575b6107169150610ab5565b5f52600260205260405f2080549067ffffffffffffffff82116104e9576040519161074760208260051b0184610a25565b8083526020830180925f5260205f205f915b83831061082457848660405191829160208301906020845251809152604083019060408160051b85010192915f905b82821061079757505050500390f35b919360019193955060208091603f1989820301855287519081518152848060a01b03838301511683820152848060a01b03604083015116604082015260c0806108046107f2606086015160e0606087015260e08601906109e5565b608086015185820360808701526109e5565b9360a081015160a085015201519101529601920192018594939192610788565b6007602060019260405161083781610a09565b855481528486015460a086901b86900390811684830152600287015416604082015261086560038701610b29565b606082015261087660048701610b29565b6080820152600586015460a0820152600686015460c0820152815201920192019190610759565b5060048054604051631709ef0760e01b81526001600160a01b0393841692810192909252336024830152909160209183916044918391165afa801561060757610716915f916108ed575b5061070c565b610906915060203d602011610600576105f28183610a25565b836108e7565b34610101575f366003190112610101575f546040516001600160a01b039091168152602090f35b34610101575f366003190112610101576005546040516001600160a01b039091168152602090f35b34610101575f366003190112610101576020600154604051908152f35b34610101575f36600319011261010157610990610beb565b5f80546001600160a01b0319811682556001600160a01b03167f8be0079c531659141344cd1fd0a4f28419497f9722a3daafe3b4186f6b6457e08280a3005b600435906001600160a01b038216820361010157565b805180835260209291819084018484015e5f828201840152601f01601f1916010190565b60e0810190811067ffffffffffffffff8211176104e957604052565b90601f8019910116810190811067ffffffffffffffff8211176104e957604052565b81601f820112156101015780359067ffffffffffffffff82116104e95760405192610a7c601f8401601f191660200185610a25565b8284526020838301011161010157815f926020809301838601378301015290565b90816020910312610101575180151581036101015790565b15610abc57565b60405162461bcd60e51b815260206004820152600d60248201526c1058d8d95cdcc819195b9a5959609a1b6044820152606490fd5b90600182811c92168015610b1f575b6020831014610b0b57565b634e487b7160e01b5f52602260045260245ffd5b91607f1691610b00565b9060405191825f825492610b3c84610af1565b8084529360018116908115610ba75750600114610b63575b50610b6192500383610a25565b565b90505f9291925260205f20905f915b818310610b8b575050906020610b61928201015f610b54565b6020919350806001915483858901015201910190918492610b72565b905060209250610b6194915060ff191682840152151560051b8201015f610b54565b5f198114610bd75760010190565b634e487b7160e01b5f52601160045260245ffd5b5f546001600160a01b03163303610bfe57565b63118cdaa760e01b5f523360045260245ffdfea2646970667358221220196262fd1d3ef15bc4fad4b575a27c45d1d73037c391f5b4e8914f2e5b0b8a8464736f6c63430008210033","linkReferences":{}},"methodIdentifiers":{"addRecord(address,string,string)":"d47b41d5","consentManager()":"e75bb266","doctorRegistry()":"82cfb2ff","getRecords(address)":"a0076e84","owner()":"8da5cb5b","recordCounter()":"7599be5d","renounceOwnership()":"715018a6","transferOwnership(address)":"f2fde38b","versionByType(address,string)":"d38c534e"},"id":22}