{"abi":[{"type":"constructor","inputs":[{"name":"initialOwner","type":"address","internalType":"address"}],"stateMutability":"nonpayable"},{"type":"function","name":"approveByHospital","inputs":[{"name":"_escrowId","type":"uint256","internalType":"uint256"}],"outputs":[],"stateMutability":"nonpayable"},{"type":"function","name":"approveByInsurance","inputs":[{"name":"_escrowId","type":"uint256","internalType":"uint256"}],"outputs":[],"stateMutability":"nonpayable"},{"type":"function","name":"escrowCounter","inputs":[],"outputs":[{"name":"","type":"uint256","internalType":"uint256"}],"stateMutability":"view"},{"type":"function","name":"escrows","inputs":[{"name":"","type":"uint256","internalType":"uint256"}],"outputs":[{"name":"patient","type":"address","internalType":"address"},{"name":"hospital","type":"address","internalType":"address"},{"name":"insurance","type":"address","internalType":"address"},{"name":"amount","type":"uint256","internalType":"uint256"},{"name":"hospitalApproved","type":"bool","internalType":"bool"},{"name":"insuranceApproved","type":"bool","internalType":"bool"},{"name":"status","type":"uint8","internalType":"enum InsuranceEscrow.EscrowStatus"}],"stateMutability":"view"},{"type":"function","name":"getEscrow","inputs":[{"name":"_escrowId","type":"uint256","internalType":"uint256"}],"outputs":[{"name":"","type":"tuple","internalType":"struct InsuranceEscrow.Escrow","components":[{"name":"patient","type":"address","internalType":"address"},{"name":"hospital","type":"address","internalType":"address"},{"name":"insurance","type":"address","internalType":"address"},{"name":"amount","type":"uint256","internalType":"uint256"},{"name":"hospitalApproved","type":"bool","internalType":"bool"},{"name":"insuranceApproved","type":"bool","internalType":"bool"},{"name":"status","type":"uint8","internalType":"enum InsuranceEscrow.EscrowStatus"}]}],"stateMutability":"view"},{"type":"function","name":"lockFunds","inputs":[{"name":"_hospital","type":"address","internalType":"address"},{"name":"_insurance","type":"address","internalType":"address"}],"outputs":[{"name":"","type":"uint256","internalType":"uint256"}],"stateMutability":"payable"},{"type":"function","name":"owner","inputs":[],"outputs":[{"name":"","type":"address","internalType":"address"}],"stateMutability":"view"},{"type":"function","name":"refund","inputs":[{"name":"_escrowId","type":"uint256","internalType":"uint256"}],"outputs":[],"stateMutability":"nonpayable"},{"type":"function","name":"renounceOwnership","inputs":[],"outputs":[],"stateMutability":"nonpayable"},{"type":"function","name":"transferOwnership","inputs":[{"name":"newOwner","type":"address","internalType":"address"}],"outputs":[],"stateMutability":"nonpayable"},{"type":"event","name":"FundsLocked","inputs":[{"name":"escrowId","type":"uint256","indexed":true,"internalType":"uint256"},{"name":"patient","type":"address","indexed":true,"internalType":"address"},{"name":"hospital","type":"address","indexed":true,"internalType":"address"},{"name":"insurance","type":"address","indexed":false,"internalType":"address"},{"name":"amount","type":"uint256","indexed":false,"internalType":"uint256"}],"anonymous":false},{"type":"event","name":"FundsRefunded","inputs":[{"name":"escrowId","type":"uint256","indexed":true,"internalType":"uint256"}],"anonymous":false},{"type":"event","name":"FundsReleased","inputs":[{"name":"escrowId","type":"uint256","indexed":true,"internalType":"uint256"}],"anonymous":false},{"type":"event","name":"HospitalApproved","inputs":[{"name":"escrowId","type":"uint256","indexed":true,"internalType":"uint256"}],"anonymous":false},{"type":"event","name":"InsuranceApproved","inputs":[{"name":"escrowId","type":"uint256","indexed":true,"internalType":"uint256"}],"anonymous":false},{"type":"event","name":"OwnershipTransferred","inputs":[{"name":"previousOwner","type":"address","indexed":true,"internalType":"address"},{"name":"newOwner","type":"address","indexed":true,"internalType":"address"}],"anonymous":false},{"type":"error","name":"OwnableInvalidOwner","inputs":[{"name":"owner","type":"address","internalType":"address"}]},{"type":"error","name":"OwnableUnauthorizedAccount","inputs":[{"name":"account","type":"address","internalType":"address"}]}],"bytecode":{"object":"0x60803460b857601f610af538819003918201601f19168301916001600160401b0383118484101760bc5780849260209460405283398101031260b857516001600160a01b0381169081900360b857801560a5575f80546001600160a01b031981168317825560405192916001600160a01b03909116907f8be0079c531659141344cd1fd0a4f28419497f9722a3daafe3b4186f6b6457e09080a3610a2490816100d18239f35b631e4fbdf760e01b5f525f60045260245ffd5b5f80fd5b634e487b7160e01b5f52604160045260245ffdfe6080806040526004361015610012575f80fd5b5f3560e01c908163012f52ee1461078957508063278ecde1146106aa578063378942d3146105e7578063466730ff146103ae578063715018a6146103575780637d19e596146102325780638da5cb5b1461020b578063c7ceafea146101ee578063dba579aa146101135763f2fde38b1461008a575f80fd5b3461010f57602036600319011261010f576100a3610822565b6100ab6108fa565b6001600160a01b031680156100fc575f80546001600160a01b03198116831782556001600160a01b0316907f8be0079c531659141344cd1fd0a4f28419497f9722a3daafe3b4186f6b6457e09080a3005b631e4fbdf760e01b5f525f60045260245ffd5b5f80fd5b3461010f57602036600319011261010f57600435805f52600260205260405f2060018060a01b0360028201541633036101b8576004019081549160ff8360101c1660048110156101a4576101a29361017060016101009314610838565b61ff001916179055807fb3dab2b8bef10d7551f3e6e8ef911782f7b1805355277744303b989a775b01615f80a2610920565b005b634e487b7160e01b5f52602160045260245ffd5b60405162461bcd60e51b815260206004820152600e60248201526d4f6e6c7920696e737572616e636560901b6044820152606490fd5b3461010f575f36600319011261010f576020600154604051908152f35b3461010f575f36600319011261010f575f546040516001600160a01b039091168152602090f35b3461010f57602036600319011261010f575f60c061024e610875565b8281528260208201528260408201528260608201528260808201528260a082015201526004355f52600260205260405f20610287610875565b60018060a01b03825416815260018060a01b03600183015416916020820192835260018060a01b036002820154166040830190815260046003830154926060850193845201546080840160ff82161515815260ff60a0860192818160081c161515845260101c169360c086019360048610156101a45760e0976103559686526040519760018060a01b03905116885260018060a01b03905116602088015260018060a01b039051166040870152516060860152511515608085015251151560a08401525160c0830190610815565bf35b3461010f575f36600319011261010f5761036f6108fa565b5f80546001600160a01b0319811682556001600160a01b03167f8be0079c531659141344cd1fd0a4f28419497f9722a3daafe3b4186f6b6457e08280a3005b604036600319011261010f576103c2610822565b6024356001600160a01b038116919082900361010f5734156105ad576001600160a01b031690811561057557801561053c576001545f19811461052857600101918260015561040f610875565b3381526020808201838152604080840186815234606086019081525f6080870181815260a08801828152600160c08a018181529c845260029889905295909220975188546001600160a01b039182166001600160a01b0319918216178a5596519589018054968216968816969096179095559251958701805496909416959094169490941790915591516003840155905160049283018054925161ff0090151560081b1691151560ff1661ffff1990931692909217178155935193908410156101a45760209362ff000082549160101b169062ff00001916179055600154916040519081523484820152827f62ec80e11a3cd325dded9e043ff526aac6338558a6c88bceaa24ea839b6d501260403393a4604051908152f35b634e487b7160e01b5f52601160045260245ffd5b60405162461bcd60e51b8152602060048201526011602482015270496e76616c696420696e737572616e636560781b6044820152606490fd5b60405162461bcd60e51b815260206004820152601060248201526f125b9d985b1a59081a1bdcdc1a5d185b60821b6044820152606490fd5b60405162461bcd60e51b81526020600482015260126024820152710416d6f756e74206d757374206265203e20360741b6044820152606490fd5b3461010f57602036600319011261010f576004355f81815260026020526040902060018101546001600160a01b03163303610675576004019081549160ff8360101c1660048110156101a4576101a2936106446001809314610838565b60ff1916179055807f5c1ed6c60794a5824aa4aadb9e3bf6f0c1c9360e655e8a576e06c86698b193275f80a2610920565b60405162461bcd60e51b815260206004820152600d60248201526c13db9b1e481a1bdcdc1a5d185b609a1b6044820152606490fd5b3461010f57602036600319011261010f576004356106c66108fa565b805f52600260205260405f20600481019060ff825460101c169160048310156101a4575f80809381936106fc6001899814610838565b805462ff0000191662030000179055805460039190910154906001600160a01b03165af16107286108a9565b5015610754577fca4bd5135a11e3fc146ac22d75f0d2eae9b6c61b6fa3eb6724a456b311ad72d35f80a2005b60405162461bcd60e51b815260206004820152600d60248201526c1499599d5b990819985a5b1959609a1b6044820152606490fd5b3461010f57602036600319011261010f5760e0906004355f52600260205261035560405f2060018060a01b038154169060018060a01b0360018201541660018060a01b03600283015416906004600384015493015493865260208601526040850152606084015260ff81161515608084015260ff8160081c16151560a084015260ff60c084019160101c165b9060048210156101a45752565b600435906001600160a01b038216820361010f57565b1561083f57565b60405162461bcd60e51b815260206004820152600e60248201526d496e76616c69642073746174757360901b6044820152606490fd5b6040519060e0820182811067ffffffffffffffff82111761089557604052565b634e487b7160e01b5f52604160045260245ffd5b3d156108f5573d9067ffffffffffffffff82116108955760405191601f8101601f19908116603f0116830167ffffffffffffffff8111848210176108955760405282523d5f602084013e565b606090565b5f546001600160a01b0316330361090d57565b63118cdaa760e01b5f523360045260245ffd5b805f52600260205260405f2060048101805460ff811690816109e0575b5061094757505050565b805462ff000019166202000017905560018101546003909101545f91829182918291906001600160a01b03165af161097d6108a9565b50156109a9577f952b264c8e0a06cddb4bbaa6d6af1d565145329fd95bbe72cb2b53942b2dc9665f80a2565b60405162461bcd60e51b815260206004820152600f60248201526e151c985b9cd9995c8819985a5b1959608a1b6044820152606490fd5b60ff915060081c165f61093d56fea26469706673582212203a793326af902ad0a25dbc8d4457fd58cf8b557f5ef01a6ad80b85991745216964736f6c63430008210033","linkReferences":{}},"methodIdentifiers":{"approveByHospital(uint256)":"378942d3","approveByInsurance(uint256)":"dba579aa","escrowCounter()":"c7ceafea","escrows(uint256)":"012f52ee","getEscrow(uint256)":"7d19e596","lockFunds(address,address)":"466730ff","owner()":"8da5cb5b","refund(uint256)":"278ecde1","renounceOwnership()":"715018a6","transferOwnership(address)":"f2fde38b"},"id":21}