{"abi":[{"type":"constructor","inputs":[{"name":"initialOwner","type":"address","internalType":"address"}],"stateMutability":"nonpayable"},{"type":"function","name":"doctorAccess","inputs":[{"name":"","type":"address","internalType":"address"},{"name":"","type":"address","internalType":"address"}],"outputs":[{"name":"","type":"bool","internalType":"bool"}],"stateMutability":"view"},{"type":"function","name":"emergencyAccessUntil","inputs":[{"name":"","type":"address","internalType":"address"},{"name":"","type":"address","internalType":"address"}],"outputs":[{"name":"","type":"uint256","internalType":"uint256"}],"stateMutability":"view"},{"type":"function","name":"grantAccess","inputs":[{"name":"_doctor","type":"address","internalType":"address"}],"outputs":[],"stateMutability":"nonpayable"},{"type":"function","name":"grantEmergencyAccess","inputs":[{"name":"_patient","type":"address","internalType":"address"},{"name":"_doctor","type":"address","internalType":"address"},{"name":"duration","type":"uint256","internalType":"uint256"}],"outputs":[],"stateMutability":"nonpayable"},{"type":"function","name":"hasAccess","inputs":[{"name":"_patient","type":"address","internalType":"address"},{"name":"_doctor","type":"address","internalType":"address"}],"outputs":[{"name":"","type":"bool","internalType":"bool"}],"stateMutability":"view"},{"type":"function","name":"owner","inputs":[],"outputs":[{"name":"","type":"address","internalType":"address"}],"stateMutability":"view"},{"type":"function","name":"renounceOwnership","inputs":[],"outputs":[],"stateMutability":"nonpayable"},{"type":"function","name":"revokeAccess","inputs":[{"name":"_doctor","type":"address","internalType":"address"}],"outputs":[],"stateMutability":"nonpayable"},{"type":"function","name":"transferOwnership","inputs":[{"name":"newOwner","type":"address","internalType":"address"}],"outputs":[],"stateMutability":"nonpayable"},{"type":"event","name":"AccessGranted","inputs":[{"name":"patient","type":"address","indexed":true,"internalType":"address"},{"name":"doctor","type":"address","indexed":true,"internalType":"address"}],"anonymous":false},{"type":"event","name":"AccessRevoked","inputs":[{"name":"patient","type":"address","indexed":true,"internalType":"address"},{"name":"doctor","type":"address","indexed":true,"internalType":"address"}],"anonymous":false},{"type":"event","name":"EmergencyAccessGranted","inputs":[{"name":"patient","type":"address","indexed":true,"internalType":"address"},{"name":"doctor","type":"address","indexed":true,"internalType":"address"},{"name":"expiresAt","type":"uint256","indexed":false,"internalType":"uint256"}],"anonymous":false},{"type":"event","name":"OwnershipTransferred","inputs":[{"name":"previousOwner","type":"address","indexed":true,"internalType":"address"},{"name":"newOwner","type":"address","indexed":true,"internalType":"address"}],"anonymous":false},{"type":"error","name":"OwnableInvalidOwner","inputs":[{"name":"owner","type":"address","internalType":"address"}]},{"type":"error","name":"OwnableUnauthorizedAccount","inputs":[{"name":"account","type":"address","internalType":"address"}]}],"bytecode":{"object":"0x60803460b857601f61059b38819003918201601f19168301916001600160401b0383118484101760bc5780849260209460405283398101031260b857516001600160a01b0381169081900360b857801560a5575f80546001600160a01b031981168317825560405192916001600160a01b03909116907f8be0079c531659141344cd1fd0a4f28419497f9722a3daafe3b4186f6b6457e09080a36104ca90816100d18239f35b631e4fbdf760e01b5f525f60045260245ffd5b5f80fd5b634e487b7160e01b5f52604160045260245ffdfe60806040526004361015610011575f80fd5b5f3560e01c80630ae5e7391461037057806313d054d7146102cd5780631709ef0714610297578063715018a61461024057806385e68531146101d35780638da5cb5b146101ac5780639bc553551461015c578063f2fde38b146100d75763fe127fcb1461007c575f80fd5b346100d35760403660031901126100d3576100956103e0565b61009d6103f6565b9060018060a01b03165f52600160205260405f209060018060a01b03165f52602052602060ff60405f2054166040519015158152f35b5f80fd5b346100d35760203660031901126100d3576100f06103e0565b6100f861046e565b6001600160a01b03168015610149575f80546001600160a01b03198116831782556001600160a01b0316907f8be0079c531659141344cd1fd0a4f28419497f9722a3daafe3b4186f6b6457e09080a3005b631e4fbdf760e01b5f525f60045260245ffd5b346100d35760403660031901126100d3576101756103e0565b61017d6103f6565b6001600160a01b039182165f908152600260209081526040808320949093168252928352819020549051908152f35b346100d3575f3660031901126100d3575f546040516001600160a01b039091168152602090f35b346100d35760203660031901126100d3576101ec6103e0565b335f8181526001602090815260408083206001600160a01b0395909516808452949091528120805460ff191690557f825c8be24eb0df19500f63e86c29e7d0d951e73056b889b891d85e40938d9b6e9080a3005b346100d3575f3660031901126100d35761025861046e565b5f80546001600160a01b0319811682556001600160a01b03167f8be0079c531659141344cd1fd0a4f28419497f9722a3daafe3b4186f6b6457e08280a3005b346100d35760403660031901126100d35760206102c36102b56103e0565b6102bd6103f6565b9061040c565b6040519015158152f35b346100d35760603660031901126100d3576102e66103e0565b6102ee6103f6565b6102f661046e565b60443542019182421161035c576001600160a01b039081165f8181526002602090815260408083209590941680835294815290839020859055915193845291927f5d1675d647fd82d7866123d4b61e400e9b9cd41946ae22001974c31e8addb20b9190a3005b634e487b7160e01b5f52601160045260245ffd5b346100d35760203660031901126100d3576103896103e0565b335f8181526001602081815260408084206001600160a01b0396909616808552959091528220805460ff191690911790557f9f520b3bfc56d06f7065d10b4683b3f57ac8895d5026cd176dee95ce1454cb8d9080a3005b600435906001600160a01b03821682036100d357565b602435906001600160a01b03821682036100d357565b60018060a01b0316805f52600160205260405f2060018060a01b0383165f5260205260ff60405f205416610467575f52600260205260405f209060018060a01b03165f5260205260405f20544210610462575f90565b600190565b5050600190565b5f546001600160a01b0316330361048157565b63118cdaa760e01b5f523360045260245ffdfea26469706673582212200a19d6d72f91f7cf18eb09157b8bc75b9504b400e1f82fe895f2ce3e3452437d64736f6c63430008210033","linkReferences":{}},"methodIdentifiers":{"doctorAccess(address,address)":"fe127fcb","emergencyAccessUntil(address,address)":"9bc55355","grantAccess(address)":"0ae5e739","grantEmergencyAccess(address,address,uint256)":"13d054d7","hasAccess(address,address)":"1709ef07","owner()":"8da5cb5b","renounceOwnership()":"715018a6","revokeAccess(address)":"85e68531","transferOwnership(address)":"f2fde38b"},"id":18}