{"abi":[{"type":"constructor","inputs":[{"name":"initialOwner","type":"address","internalType":"address"}],"stateMutability":"nonpayable"},{"type":"function","name":"hospitals","inputs":[{"name":"","type":"address","internalType":"address"}],"outputs":[{"name":"name","type":"string","internalType":"string"},{"name":"location","type":"string","internalType":"string"},{"name":"isVerified","type":"bool","internalType":"bool"},{"name":"traumaCapable","type":"bool","internalType":"bool"},{"name":"oracleSigner","type":"address","internalType":"address"}],"stateMutability":"view"},{"type":"function","name":"isHospitalVerified","inputs":[{"name":"_hospital","type":"address","internalType":"address"}],"outputs":[{"name":"","type":"bool","internalType":"bool"}],"stateMutability":"view"},{"type":"function","name":"owner","inputs":[],"outputs":[{"name":"","type":"address","internalType":"address"}],"stateMutability":"view"},{"type":"function","name":"registerHospital","inputs":[{"name":"_hospitalAddr","type":"address","internalType":"address"},{"name":"_name","type":"string","internalType":"string"},{"name":"_location","type":"string","internalType":"string"},{"name":"_traumaCapable","type":"bool","internalType":"bool"}],"outputs":[],"stateMutability":"nonpayable"},{"type":"function","name":"renounceOwnership","inputs":[],"outputs":[],"stateMutability":"nonpayable"},{"type":"function","name":"transferOwnership","inputs":[{"name":"newOwner","type":"address","internalType":"address"}],"outputs":[],"stateMutability":"nonpayable"},{"type":"function","name":"updateOracleSigner","inputs":[{"name":"_oracleSigner","type":"address","internalType":"address"}],"outputs":[],"stateMutability":"nonpayable"},{"type":"function","name":"verifyHospital","inputs":[{"name":"_hospitalAddr","type":"address","internalType":"address"}],"outputs":[],"stateMutability":"nonpayable"},{"type":"event","name":"HospitalRegistered","inputs":[{"name":"hospital","type":"address","indexed":true,"internalType":"address"}],"anonymous":false},{"type":"event","name":"HospitalVerified","inputs":[{"name":"hospital","type":"address","indexed":true,"internalType":"address"}],"anonymous":false},{"type":"event","name":"OracleUpdated","inputs":[{"name":"hospital","type":"address","indexed":true,"internalType":"address"},{"name":"newOracle","type":"address","indexed":false,"internalType":"address"}],"anonymous":false},{"type":"event","name":"OwnershipTransferred","inputs":[{"name":"previousOwner","type":"address","indexed":true,"internalType":"address"},{"name":"newOwner","type":"address","indexed":true,"internalType":"address"}],"anonymous":false},{"type":"error","name":"OwnableInvalidOwner","inputs":[{"name":"owner","type":"address","internalType":"address"}]},{"type":"error","name":"OwnableUnauthorizedAccount","inputs":[{"name":"account","type":"address","internalType":"address"}]}],"bytecode":{"object":"0x60803460b857601f610a8f38819003918201601f19168301916001600160401b0383118484101760bc5780849260209460405283398101031260b857516001600160a01b0381169081900360b857801560a5575f80546001600160a01b031981168317825560405192916001600160a01b03909116907f8be0079c531659141344cd1fd0a4f28419497f9722a3daafe3b4186f6b6457e09080a36109be90816100d18239f35b631e4fbdf760e01b5f525f60045260245ffd5b5f80fd5b634e487b7160e01b5f52604160045260245ffdfe6080806040526004361015610012575f80fd5b5f3560e01c9081633fd64687146106ff5750806346fab624146106345780635e3090651461025d578063715018a6146102065780638da5cb5b146101df578063f093cf801461013d578063f2fde38b146100b85763fd9d522114610074575f80fd5b346100b45760203660031901126100b4576001600160a01b036100956107d8565b165f526001602052602060ff600260405f200154166040519015158152f35b5f80fd5b346100b45760203660031901126100b4576100d16107d8565b6100d9610962565b6001600160a01b0316801561012a575f80546001600160a01b03198116831782556001600160a01b0316907f8be0079c531659141344cd1fd0a4f28419497f9722a3daafe3b4186f6b6457e09080a3005b631e4fbdf760e01b5f525f60045260245ffd5b346100b45760203660031901126100b4576001600160a01b0361015e6107d8565b165f5260016020526101a060405f206101768161089e565b906101ae60026101886001840161089e565b9201549160405194859460a0865260a086019061093e565b90848203602086015261093e565b60ff80831615156040850152600883901c161515606084015260109190911c6001600160a01b031660808301520390f35b346100b4575f3660031901126100b4575f546040516001600160a01b039091168152602090f35b346100b4575f3660031901126100b45761021e610962565b5f80546001600160a01b0319811682556001600160a01b03167f8be0079c531659141344cd1fd0a4f28419497f9722a3daafe3b4186f6b6457e08280a3005b346100b45760803660031901126100b4576102766107d8565b60243567ffffffffffffffff81116100b457610296903690600401610810565b60443567ffffffffffffffff81116100b4576102b6903690600401610810565b91606435908115158092036100b4576102cd610962565b60018060a01b031691825f5260016020526102eb60405f2054610866565b6105fa576040519060a0820182811067ffffffffffffffff82111761051f5760405281526020810193845260408101915f83526060820190815260808201915f8352845f52600160205260405f20905180519067ffffffffffffffff821161051f5781906103598454610866565b601f81116105a1575b50602090601f831160011461053e575f92610533575b50508160011b915f199060031b1c19161781555b60018101955195865167ffffffffffffffff811161051f576103ae8254610866565b601f81116104ce575b506020601f82116001146104645790806002949392610433999a5f92610459575b50508160011b915f199060031b1c19161790555b935193018054915192516001600160b01b031990921660ff941515949094169390931791151560081b61ff00169190911760109190911b62010000600160b01b0316179055565b7f380355b6fe4f9755ddcef7c5c195edae45bdb34953a41d82386022f3cd5899f05f80a2005b015190508a806103d8565b601f19821698835f52815f20995f5b8181106104b6575099600192849260029796956104339c9d1061049e575b505050811b0190556103ec565b01515f1960f88460031b161c191690558a8080610491565b838301518c556001909b019a60209384019301610473565b818111156103b757825f5260205f20601f830160051c9060208410610517575b81601f9101920160051c03905f5b82811061050a5750506103b7565b5f828201556001016104fc565b5f91506104ee565b634e487b7160e01b5f52604160045260245ffd5b015190508880610378565b5f8581528281209350601f198516905b8181106105895750908460019594939210610571575b505050811b01815561038c565b01515f1960f88460031b161c19169055888080610564565b9293602060018192878601518155019501930161054e565b8281111561036257909150835f5260205f20601f840160051c90602085106105f2575b849392601f0160051c82900391015f5b8281106105e2575050610362565b5f818301558594506001016105d4565b5f91506105c4565b60405162461bcd60e51b8152602060048201526012602482015271105b1c9958591e481c9959da5cdd195c995960721b6044820152606490fd5b346100b45760203660031901126100b45761064d6107d8565b610655610962565b6001600160a01b03165f8181526001602052604090205461067590610866565b156106ba57805f526001602052600260405f2001600160ff198254161790557ff474af46ed77eb03872a0d016133655c67f732a6d73a90ea7403bd4a79f8bcdf5f80a2005b60405162461bcd60e51b815260206004820152601760248201527f486f73706974616c206e6f7420726567697374657265640000000000000000006044820152606490fd5b346100b45760203660031901126100b4576107186107d8565b90335f52600160205260ff600260405f200154161561079e5750335f908152600160205260409020600201805462010000600160b01b031916601083901b62010000600160b01b03161790556040516001600160a01b03909116815233907f078c3b417dadf69374a59793b829c52001247130433427049317bde56607b1b790602090a2005b62461bcd60e51b8152602060048201526015602482015274139bdd081d995c9a599a5959081a1bdcdc1a5d185b605a1b6044820152606490fd5b600435906001600160a01b03821682036100b457565b90601f8019910116810190811067ffffffffffffffff82111761051f57604052565b81601f820112156100b45780359067ffffffffffffffff821161051f5760405192610845601f8401601f1916602001856107ee565b828452602083830101116100b457815f926020809301838601378301015290565b90600182811c92168015610894575b602083101461088057565b634e487b7160e01b5f52602260045260245ffd5b91607f1691610875565b9060405191825f8254926108b184610866565b808452936001811690811561091c57506001146108d8575b506108d6925003836107ee565b565b90505f9291925260205f20905f915b8183106109005750509060206108d6928201015f6108c9565b60209193508060019154838589010152019101909184926108e7565b9050602092506108d694915060ff191682840152151560051b8201015f6108c9565b805180835260209291819084018484015e5f828201840152601f01601f1916010190565b5f546001600160a01b0316330361097557565b63118cdaa760e01b5f523360045260245ffdfea26469706673582212208c8bae58151e9f41a535cb45592e13728c6297720577b7b72aaaddb2d754c40164736f6c63430008210033","linkReferences":{}},"methodIdentifiers":{"hospitals(address)":"f093cf80","isHospitalVerified(address)":"fd9d5221","owner()":"8da5cb5b","registerHospital(address,string,string,bool)":"5e309065","renounceOwnership()":"715018a6","transferOwnership(address)":"f2fde38b","updateOracleSigner(address)":"3fd64687","verifyHospital(address)":"46fab624"},"id":20}