{"abi":[{"type":"constructor","inputs":[{"name":"_hospitalRegistry","type":"address","internalType":"address"},{"name":"initialOwner","type":"address","internalType":"address"}],"stateMutability":"nonpayable"},{"type":"function","name":"doctors","inputs":[{"name":"","type":"address","internalType":"address"}],"outputs":[{"name":"name","type":"string","internalType":"string"},{"name":"specialization","type":"string","internalType":"string"},{"name":"hospital","type":"address","internalType":"address"},{"name":"isVerified","type":"bool","internalType":"bool"}],"stateMutability":"view"},{"type":"function","name":"hospitalRegistry","inputs":[],"outputs":[{"name":"","type":"address","internalType":"contract IHospitalRegistry"}],"stateMutability":"view"},{"type":"function","name":"isDoctorVerified","inputs":[{"name":"_doctor","type":"address","internalType":"address"}],"outputs":[{"name":"","type":"bool","internalType":"bool"}],"stateMutability":"view"},{"type":"function","name":"owner","inputs":[],"outputs":[{"name":"","type":"address","internalType":"address"}],"stateMutability":"view"},{"type":"function","name":"registerDoctor","inputs":[{"name":"_doctorAddr","type":"address","internalType":"address"},{"name":"_name","type":"string","internalType":"string"},{"name":"_specialization","type":"string","internalType":"string"},{"name":"_hospital","type":"address","internalType":"address"}],"outputs":[],"stateMutability":"nonpayable"},{"type":"function","name":"renounceOwnership","inputs":[],"outputs":[],"stateMutability":"nonpayable"},{"type":"function","name":"transferOwnership","inputs":[{"name":"newOwner","type":"address","internalType":"address"}],"outputs":[],"stateMutability":"nonpayable"},{"type":"function","name":"verifyDoctor","inputs":[{"name":"_doctorAddr","type":"address","internalType":"address"}],"outputs":[],"stateMutability":"nonpayable"},{"type":"event","name":"DoctorRegistered","inputs":[{"name":"doctor","type":"address","indexed":true,"internalType":"address"},{"name":"hospital","type":"address","indexed":true,"internalType":"address"}],"anonymous":false},{"type":"event","name":"DoctorVerified","inputs":[{"name":"doctor","type":"address","indexed":true,"internalType":"address"}],"anonymous":false},{"type":"event","name":"OwnershipTransferred","inputs":[{"name":"previousOwner","type":"address","indexed":true,"internalType":"address"},{"name":"newOwner","type":"address","indexed":true,"internalType":"address"}],"anonymous":false},{"type":"error","name":"OwnableInvalidOwner","inputs":[{"name":"owner","type":"address","internalType":"address"}]},{"type":"error","name":"OwnableUnauthorizedAccount","inputs":[{"name":"account","type":"address","internalType":"address"}]}],"bytecode":{"object":"0x6080346100ea57601f610abc38819003918201601f19168301916001600160401b038311848410176100ee5780849260409485528339810103126100ea5761004681610102565b906001600160a01b039061005c90602001610102565b169081156100d7575f80546001600160a01b031981168417825560405193916001600160a01b03909116907f8be0079c531659141344cd1fd0a4f28419497f9722a3daafe3b4186f6b6457e09080a3600280546001600160a01b0319166001600160a01b03929092169190911790556109a590816101178239f35b631e4fbdf760e01b5f525f60045260245ffd5b5f80fd5b634e487b7160e01b5f52604160045260245ffd5b51906001600160a01b03821682036100ea5756fe60806040526004361015610011575f80fd5b5f3560e01c806305497209146103415780630b13acdf146102fe57806369b80fc9146102d6578063715018a61461027f5780638da5cb5b14610258578063a9583c22146101c4578063d80cb05c146100fa5763f2fde38b14610071575f80fd5b346100f65760203660031901126100f65761008a6107bf565b610092610949565b6001600160a01b031680156100e3575f80546001600160a01b03198116831782556001600160a01b0316907f8be0079c531659141344cd1fd0a4f28419497f9722a3daafe3b4186f6b6457e09080a3005b631e4fbdf760e01b5f525f60045260245ffd5b5f80fd5b346100f65760203660031901126100f6576101136107bf565b61011b610949565b6001600160a01b03165f8181526001602052604090205461013b9061084d565b15610187575f818152600160205260408120600201805460ff60a01b1916600160a01b1790557fb0859f2cf042b300c8948cdd785ec6a23a3742bc5446c19f4b270b67fac2c9679080a2005b60405162461bcd60e51b8152602060048201526015602482015274111bd8dd1bdc881b9bdd081c9959da5cdd195c9959605a1b6044820152606490fd5b346100f65760203660031901126100f6576001600160a01b036101e56107bf565b165f52600160205261022960405f206101fd81610885565b9060ff610237600261021160018501610885565b93015492604051958695608087526080870190610925565b908582036020870152610925565b6001600160a01b038316604085015260a09290921c16151560608301520390f35b346100f6575f3660031901126100f6575f546040516001600160a01b039091168152602090f35b346100f6575f3660031901126100f657610297610949565b5f80546001600160a01b0319811682556001600160a01b03167f8be0079c531659141344cd1fd0a4f28419497f9722a3daafe3b4186f6b6457e08280a3005b346100f6575f3660031901126100f6576002546040516001600160a01b039091168152602090f35b346100f65760203660031901126100f6576001600160a01b0361031f6107bf565b165f526001602052602060ff600260405f20015460a01c166040519015158152f35b346100f65760803660031901126100f65761035a6107bf565b60243567ffffffffffffffff81116100f65761037a9036906004016107f7565b60443567ffffffffffffffff81116100f65761039a9036906004016107f7565b906064359260018060a01b0384168094036100f6576103b7610949565b60025460405163fd9d522160e01b81526004810186905290602090829060249082906001600160a01b03165afa9081156107b4575f91610779575b501561073c5760018060a01b031691825f52600160205261041660405f205461084d565b61070257604051916080830183811067ffffffffffffffff82111761062757604052825260208201908152604082019184835260608101915f8352845f52600160205260405f20915180519067ffffffffffffffff821161062757819061047d855461084d565b601f81116106a9575b50602090601f8311600114610646575f9261063b575b50508160011b915f199060031b1c19161782555b518051600183019167ffffffffffffffff8211610627576104d1835461084d565b601f81116105d6575b50602090601f831160011461056f576002949392915f9183610564575b50508160011b915f199060031b1c19161790555b92519201805491516001600160a81b03199092166001600160a01b03939093169290921790151560a01b60ff60a01b161790557fcf12359779672fc0f439daf25af37eb6bd364d4a91124a6f736cafd64420d3ba5f80a3005b0151905089806104f7565b90601f19831691845f52815f20925f5b8181106105be5750916001939185600298979694106105a6575b505050811b01905561050b565b01515f1960f88460031b161c19169055898080610599565b9293602060018192878601518155019501930161057f565b828111156104da57835f5260205f20601f840160051c906020851061061f575b81601f9101920160051c03905f5b8281106106125750506104da565b5f82820155600101610604565b5f91506105f6565b634e487b7160e01b5f52604160045260245ffd5b01519050888061049c565b5f8681528281209350601f198516905b8181106106915750908460019594939210610679575b505050811b0182556104b0565b01515f1960f88460031b161c1916905588808061066c565b92936020600181928786015181550195019301610656565b8281111561048657909150845f5260205f20601f840160051c90602085106106fa575b849392601f0160051c82900391015f5b8281106106ea575050610486565b5f818301558594506001016106dc565b5f91506106cc565b60405162461bcd60e51b8152602060048201526012602482015271105b1c9958591e481c9959da5cdd195c995960721b6044820152606490fd5b60405162461bcd60e51b8152602060048201526015602482015274121bdcdc1a5d185b081b9bdd081d995c9a599a5959605a1b6044820152606490fd5b90506020813d6020116107ac575b81610794602093836107d5565b810103126100f6575180151581036100f657856103f2565b3d9150610787565b6040513d5f823e3d90fd5b600435906001600160a01b03821682036100f657565b90601f8019910116810190811067ffffffffffffffff82111761062757604052565b81601f820112156100f65780359067ffffffffffffffff8211610627576040519261082c601f8401601f1916602001856107d5565b828452602083830101116100f657815f926020809301838601378301015290565b90600182811c9216801561087b575b602083101461086757565b634e487b7160e01b5f52602260045260245ffd5b91607f169161085c565b9060405191825f8254926108988461084d565b808452936001811690811561090357506001146108bf575b506108bd925003836107d5565b565b90505f9291925260205f20905f915b8183106108e75750509060206108bd928201015f6108b0565b60209193508060019154838589010152019101909184926108ce565b9050602092506108bd94915060ff191682840152151560051b8201015f6108b0565b805180835260209291819084018484015e5f828201840152601f01601f1916010190565b5f546001600160a01b0316330361095c57565b63118cdaa760e01b5f523360045260245ffdfea2646970667358221220207466680df5087c44b995431349d08dc2913f341aeb4957ed522c9cb6d24b9764736f6c63430008210033","linkReferences":{}},"methodIdentifiers":{"doctors(address)":"a9583c22","hospitalRegistry()":"69b80fc9","isDoctorVerified(address)":"0b13acdf","owner()":"8da5cb5b","registerDoctor(address,string,string,address)":"05497209","renounceOwnership()":"715018a6","transferOwnership(address)":"f2fde38b","verifyDoctor(address)":"d80cb05c"},"id":19}